:100000000CC01FC01EC01DC01CC01BC01AC019C020
:1000100018C02FC016C015C014C011241FBECFE5D4
:10002000D2E0DEBFCDBF10E0A0E6B0E0EEEBF0E046
:1000300003C0C89531960D92A236B107D1F702D010
:100040003CC0DECF80E381BB12BA80E48FBD80E08C
:1000500090E19BBD8ABD89E08EBD8EB581608EBD6D
:100060008CE089B980E98AB97894FFCF8BBD6ABDED
:1000700008951F920F920FB60F9211248F939F93A2
:100080009CB180916000882349F0809161008823B1
:1000900029F0909360001092610008C09093610075
:1000A00080916000909161008BBD9ABD9F918F916E
:0E00B0000F900FBE0F901F901895F894FFCF81
:0200BE0001013E
:00000001FF
