:100000000CC013C012C011C010C00FC00EC00DC074
:100010000CC00BC00AC009C008C011241FBECFE528
:10002000D2E0DEBFCDBF02D087C0EACFDF93CF934F
:10003000CDB7DEB7E1E3F0E080E38083E2E3F0E018
:100040001082EFE4F0E080E48083EAE4F0E08FECFB
:1000500097E091838083EEE4F0E088E08083AEE473
:10006000B0E0EEE4F0E080818C93EAE3F0E010820F
:10007000E9E3F0E08081882F90E081709070009734
:1000800071F4AEE4B0E0EEE4F0E0808181608C9346
:10009000EAE4F0E089ED9BE091838083E9CFE9E336
:1000A000F0E08081882F90E082709070009771F46A
:1000B000AEE4B0E0EEE4F0E0808181608C93EAE4AD
:1000C000F0E087E19EE091838083D2CFE9E3F0E026
:1000D0008081882F90E084709070009771F4AEE476
:1000E000B0E0EEE4F0E0808181608C93EAE4F0E03F
:1000F00081ED9FE091838083BBCFE9E3F0E08081D5
:10010000882F90E088709070009771F4AEE4B0E0B2
:10011000EEE4F0E0808181608C93EAE4F0E081EC31
:1001200091E191838083A4CFAEE4B0E0EEE4F0E00F
:0C01300080818E7F8C939CCFF894FFCFD1
:00000001FF
