:100000000CC01BC035C019C055C017C016C015C0E4
:1000100014C013C012C011C010C011241FBECFE500
:10002000D2E0DEBFCDBF10E0A0E6B0E001C01D927F
:10003000A336B107E1F702D072C0E2CF109262009E
:1000400010926100109260008FEF84BB86E891E00F
:100050009BBD8ABD80E489BF88E08EBD85BF80E8F6
:100060008ABF8BBF7894FFCF1EBC109262000895A8
:100070001F920F920FB60F9211248F939F9380912E
:100080006200882369F48091600090916100893951
:10009000910531F08DE08EBD81E08093620003C058
:1000A0001EBC109262009F918F910F900FBE0F9017
:1000B0001F9018951F920F920FB60F9211242F9335
:1000C0003F938F939F93809162008130C9F4209178
:1000D0006000309161002939310591F0822F932F12
:1000E0008F70907009972CF0207F3070205F3F4F09
:1000F00002C02F5F3F4F309361002093600003C028
:100100001EBC109262008091600085BB9F918F9110
:100110003F912F910F900FBE0F901F901895F8945C
:02012000FFCF0F
:00000001FF
