:020000020000FC
:1000000004C018951AC018952AC00FE50DBF02E06C
:100010000EBF112722270FEF04BB01E00BBD06E83E
:100020000ABD00E409BF08E00EBD08E005BF00E816
:100030000ABF00E80BBF7894FFCF0F930FB70F9361
:10004000112331F4293939F00DE00EBD139503C0A9
:1000500000270EBD11270F910FBF0F9118950F9319
:100060000FB70F93103079F0293921F411270027A9
:100070000EBD09C02395022F0F700A3019F4207F9E
:0E00800000E1200F25BB0F910FBF0F911895C7
:00000001FF
