:100000000CC027C026C025C024C023C022C021C0E8
:1000100020C0A4C06AC01DC01CC011241FBECFE5F3
:10002000D2E0DEBFCDBF10E0A0E6B0E0E4EFF1E04B
:1000300003C0C89531960D92A63AB107D1F710E0EA
:10004000A6EAB0E001C01D92A83EB107E1F702D0D8
:10005000CFC0D6CF1092E7001092A60081E089B9F8
:1000600088EB8AB97894FFCF982F8091A6008034CE
:10007000A8F48091E700E82FF0E0E955FF4F908366
:100080008F5F8093E7008091A6008F5F8093A6002A
:100090008091E700803411F41092E7000895482F12
:1000A000592F20E01AC08091A6008034A8F48091D6
:1000B000E700E82FF0E0E955FF4F30838F5F809332
:1000C000E7008091A6008F5F8093A6008091E700F3
:1000D000803411F41092E7002F5FE42FF52FE20F28
:1000E000F11D30813323F9F608951F920F920FB658
:1000F0000F9211242F938F939F93EF93FF938091EF
:10010000A600882309F18091E7002091A60090E0E5
:10011000821B910997FF08C0E091E7008091A6003B
:10012000F0E0E05CFF4F05C0E091E7008091A600A1
:10013000F0E0E81BF109E955FF4FE0818091A6004E
:1001400081508093A600ECB9FF91EF919F918F9120
:100150002F910F900FBE0F901F9018951F920F9226
:100160000FB60F9211242F933F934F935F936F938A
:100170007F938F939F93AF93BF93EF93FF939CB124
:10018000892F80538A3050F4E92FF0E0EE0FFF1FE3
:10019000EE5CFF4F8081918182DF19C08091A600C3
:1001A0008034A8F48091E700E82FF0E0E955FF4F94
:1001B00090838F5F8093E7008091A6008F5F80938C
:1001C000A6008091E700803411F41092E700FF91BF
:1001D000EF91BF91AF919F918F917F916F915F91BF
:1001E0004F913F912F910F900FBE0F901F90189538
:0401F000F894FFCFB1
:1001F4007A65726F006F6E650074776F0074687251
:10020400656500666F757200666976650073697866
:1002140000736576656E006569676874006E696E63
:1002240065006000650069006D00730078007D0062
:06023400810087008D002F
:00000001FF
